{
  "contractName": "GrowrLoan",
  "abi": [
    {
      "inputs": [],
      "name": "id",
      "outputs": [
        {
          "internalType": "uint256",
          "name": "",
          "type": "uint256"
        }
      ],
      "stateMutability": "view",
      "type": "function",
      "constant": true
    },
    {
      "inputs": [
        {
          "internalType": "address",
          "name": "_rBTC",
          "type": "address"
        },
        {
          "internalType": "uint256",
          "name": "_minPayment",
          "type": "uint256"
        },
        {
          "internalType": "uint256",
          "name": "_paymentPeriod",
          "type": "uint256"
        },
        {
          "internalType": "uint256",
          "name": "_principal",
          "type": "uint256"
        },
        {
          "internalType": "uint256",
          "name": "_interestRate",
          "type": "uint256"
        },
        {
          "internalType": "uint256",
          "name": "_totalPaymentsValue",
          "type": "uint256"
        }
      ],
      "name": "createNewLoan",
      "outputs": [
        {
          "internalType": "uint256",
          "name": "",
          "type": "uint256"
        }
      ],
      "stateMutability": "nonpayable",
      "type": "function"
    },
    {
      "inputs": [],
      "name": "getLoanLists",
      "outputs": [
        {
          "components": [
            {
              "internalType": "uint256",
              "name": "loanId",
              "type": "uint256"
            },
            {
              "internalType": "bool",
              "name": "issued",
              "type": "bool"
            },
            {
              "internalType": "address",
              "name": "rbtcAddress",
              "type": "address"
            },
            {
              "internalType": "uint256",
              "name": "paymentPeriod",
              "type": "uint256"
            },
            {
              "internalType": "uint256",
              "name": "paymentDueDate",
              "type": "uint256"
            },
            {
              "internalType": "uint256",
              "name": "minPayment",
              "type": "uint256"
            },
            {
              "internalType": "uint256",
              "name": "interestRate",
              "type": "uint256"
            },
            {
              "internalType": "uint256",
              "name": "principal",
              "type": "uint256"
            },
            {
              "internalType": "uint256",
              "name": "totalPaymentsValue",
              "type": "uint256"
            },
            {
              "internalType": "uint256",
              "name": "awaitingCollection",
              "type": "uint256"
            },
            {
              "internalType": "uint256",
              "name": "paymentComplete",
              "type": "uint256"
            }
          ],
          "internalType": "struct GrowrLoan.Loan[]",
          "name": "",
          "type": "tuple[]"
        }
      ],
      "stateMutability": "view",
      "type": "function",
      "constant": true
    }
  ],
  "bytecode": "0x6080604052606460005534801561001557600080fd5b506108c8806100256000396000f3fe608060405234801561001057600080fd5b50600436106100415760003560e01c80632021f1631461004657806336e87d3414610064578063af640d0f14610094575b600080fd5b61004e6100b2565b60405161005b919061072e565b60405180910390f35b61007e60048036038101906100799190610511565b6101dd565b60405161008b9190610750565b60405180910390f35b61009c61046f565b6040516100a99190610750565b60405180910390f35b60606002805480602002602001604051908101604052809291908181526020016000905b828210156101d457838290600052602060002090600a020160405180610160016040529081600082015481526020016001820160009054906101000a900460ff161515151581526020016001820160019054906101000a900473ffffffffffffffffffffffffffffffffffffffff1673ffffffffffffffffffffffffffffffffffffffff1673ffffffffffffffffffffffffffffffffffffffff16815260200160028201548152602001600382015481526020016004820154815260200160058201548152602001600682015481526020016007820154815260200160088201548152602001600982015481525050815260200190600101906100d6565b50505050905090565b60006101e7610475565b60008081546101f5906107ec565b91905081905581600001818152505087816040019073ffffffffffffffffffffffffffffffffffffffff16908173ffffffffffffffffffffffffffffffffffffffff1681525050868160a001818152505085816060018181525050838160c00181815250506001816020019015159081151581525050600081610140018181525050848160e001818152505082816101000181815250508060016000836000015181526020019081526020016000206000820151816000015560208201518160010160006101000a81548160ff02191690831515021790555060408201518160010160016101000a81548173ffffffffffffffffffffffffffffffffffffffff021916908373ffffffffffffffffffffffffffffffffffffffff160217905550606082015181600201556080820151816003015560a0820151816004015560c0820151816005015560e0820151816006015561010082015181600701556101208201518160080155610140820151816009015590505060028190806001815401808255809150506001900390600052602060002090600a02016000909190919091506000820151816000015560208201518160010160006101000a81548160ff02191690831515021790555060408201518160010160016101000a81548173ffffffffffffffffffffffffffffffffffffffff021916908373ffffffffffffffffffffffffffffffffffffffff160217905550606082015181600201556080820151816003015560a0820151816004015560c0820151816005015560e08201518160060155610100820151816007015561012082015181600801556101408201518160090155505080600001519150509695505050505050565b60005481565b60405180610160016040528060008152602001600015158152602001600073ffffffffffffffffffffffffffffffffffffffff16815260200160008152602001600081526020016000815260200160008152602001600081526020016000815260200160008152602001600081525090565b6000813590506104f681610864565b92915050565b60008135905061050b8161087b565b92915050565b60008060008060008060c0878903121561052a57600080fd5b600061053889828a016104e7565b965050602061054989828a016104fc565b955050604061055a89828a016104fc565b945050606061056b89828a016104fc565b935050608061057c89828a016104fc565b92505060a061058d89828a016104fc565b9150509295509295509295565b60006105a6838361062f565b6101608301905092915050565b6105bc816107a4565b82525050565b60006105cd8261077b565b6105d78185610793565b93506105e28361076b565b8060005b838110156106135781516105fa888261059a565b975061060583610786565b9250506001810190506105e6565b5085935050505092915050565b610629816107b6565b82525050565b610160820160008201516106466000850182610710565b5060208201516106596020850182610620565b50604082015161066c60408501826105b3565b50606082015161067f6060850182610710565b5060808201516106926080850182610710565b5060a08201516106a560a0850182610710565b5060c08201516106b860c0850182610710565b5060e08201516106cb60e0850182610710565b506101008201516106e0610100850182610710565b506101208201516106f5610120850182610710565b5061014082015161070a610140850182610710565b50505050565b610719816107e2565b82525050565b610728816107e2565b82525050565b6000602082019050818103600083015261074881846105c2565b905092915050565b6000602082019050610765600083018461071f565b92915050565b6000819050602082019050919050565b600081519050919050565b6000602082019050919050565b600082825260208201905092915050565b60006107af826107c2565b9050919050565b60008115159050919050565b600073ffffffffffffffffffffffffffffffffffffffff82169050919050565b6000819050919050565b60006107f7826107e2565b91507fffffffffffffffffffffffffffffffffffffffffffffffffffffffffffffffff82141561082a57610829610835565b5b600182019050919050565b7f4e487b7100000000000000000000000000000000000000000000000000000000600052601160045260246000fd5b61086d816107a4565b811461087857600080fd5b50565b610884816107e2565b811461088f57600080fd5b5056fea2646970667358221220b6821932586e32705805702fce234e84efdb23d0fc4ad03554a76ba5baa8c87b64736f6c63430008010033",
  "immutableReferences": {},
  "source": "// SPDX-License-Identifier: GPL-3.0\npragma solidity ^0.8.1;\n\ncontract GrowrLoan {\n    uint256 public id = 100;\n    mapping(uint256 => Loan) loans;\n    struct Loan {\n        uint256 loanId;\n        bool issued;\n        address rbtcAddress;\n        uint256 paymentPeriod;\n        uint256 paymentDueDate;\n        uint256 minPayment;\n        uint256 interestRate;\n        uint256 principal;\n        uint256 totalPaymentsValue;\n        uint256 awaitingCollection;\n        uint256 paymentComplete;\n    }\n\n    Loan[] listLoans;\n\n    function createNewLoan(\n        address _rBTC,\n        uint256 _minPayment,\n        uint256 _paymentPeriod,\n        uint256 _principal,\n        uint256 _interestRate,\n        uint256 _totalPaymentsValue\n    ) public returns (uint256) {\n        Loan memory loan;\n        loan.loanId = ++id;\n        loan.rbtcAddress = _rBTC;\n        loan.minPayment = _minPayment;\n        loan.paymentPeriod = _paymentPeriod;\n        loan.interestRate = _interestRate;\n        loan.issued = true;\n        loan.paymentComplete = 0;\n        loan.principal = _principal;\n        loan.totalPaymentsValue = _totalPaymentsValue;\n        loans[loan.loanId] = loan;\n        listLoans.push(loan);\n        return loan.loanId;\n    }\n\n    function getLoanLists() public view returns (Loan[] memory) {\n        return listLoans;\n    }\n}\n",
  "sourcePath": "/Users/shankarraomata/Documents/bankathon/growr-on-chain-smart-contracts/contracts/GrowrLoan.sol",
  "compiler": {
    "name": "solc",
    "version": "0.8.1+commit.df193b15.Emscripten.clang"
  },
  "schemaVersion": "3.4.3",
  "updatedAt": "2021-12-07T18:48:09.766Z",
  "networkType": "ethereum",
  "devdoc": {
    "kind": "dev",
    "methods": {},
    "version": 1
  },
  "userdoc": {
    "kind": "user",
    "methods": {},
    "version": 1
  }
}