{
  "contractName": "GrowrLoan",
  "abi": [
    {
      "inputs": [],
      "name": "id",
      "outputs": [
        {
          "internalType": "uint256",
          "name": "",
          "type": "uint256"
        }
      ],
      "stateMutability": "view",
      "type": "function",
      "constant": true
    },
    {
      "inputs": [
        {
          "internalType": "address payable",
          "name": "_rBTC",
          "type": "address"
        },
        {
          "internalType": "uint256",
          "name": "_minPayment",
          "type": "uint256"
        },
        {
          "internalType": "uint256",
          "name": "_paymentPeriod",
          "type": "uint256"
        },
        {
          "internalType": "uint256",
          "name": "_principal",
          "type": "uint256"
        },
        {
          "internalType": "uint256",
          "name": "_interestRate",
          "type": "uint256"
        },
        {
          "internalType": "uint256",
          "name": "_totalPaymentsValue",
          "type": "uint256"
        }
      ],
      "name": "createNewLoan",
      "outputs": [
        {
          "internalType": "uint256",
          "name": "",
          "type": "uint256"
        }
      ],
      "stateMutability": "nonpayable",
      "type": "function"
    },
    {
      "inputs": [],
      "name": "getLoanLists",
      "outputs": [
        {
          "components": [
            {
              "internalType": "uint256",
              "name": "loanId",
              "type": "uint256"
            },
            {
              "internalType": "bool",
              "name": "issued",
              "type": "bool"
            },
            {
              "internalType": "address",
              "name": "rbtcAddress",
              "type": "address"
            },
            {
              "internalType": "uint256",
              "name": "paymentPeriod",
              "type": "uint256"
            },
            {
              "internalType": "uint256",
              "name": "paymentDueDate",
              "type": "uint256"
            },
            {
              "internalType": "uint256",
              "name": "minPayment",
              "type": "uint256"
            },
            {
              "internalType": "uint256",
              "name": "interestRate",
              "type": "uint256"
            },
            {
              "internalType": "uint256",
              "name": "principal",
              "type": "uint256"
            },
            {
              "internalType": "uint256",
              "name": "totalPaymentsValue",
              "type": "uint256"
            },
            {
              "internalType": "uint256",
              "name": "awaitingCollection",
              "type": "uint256"
            },
            {
              "internalType": "uint256",
              "name": "paymentComplete",
              "type": "uint256"
            }
          ],
          "internalType": "struct GrowrLoan.Loan[]",
          "name": "",
          "type": "tuple[]"
        }
      ],
      "stateMutability": "view",
      "type": "function",
      "constant": true
    },
    {
      "inputs": [
        {
          "internalType": "address payable",
          "name": "_borrower",
          "type": "address"
        },
        {
          "internalType": "uint256",
          "name": "_amount",
          "type": "uint256"
        }
      ],
      "name": "disburseLoan",
      "outputs": [],
      "stateMutability": "nonpayable",
      "type": "function"
    }
  ],
  "bytecode": "0x6080604052606460005534801561001557600080fd5b50610992806100256000396000f3fe608060405234801561001057600080fd5b506004361061004c5760003560e01c80632021f1631461005157806336e87d341461006f578063af640d0f1461009f578063b22d62f3146100bd575b600080fd5b6100596100d9565b60405161006691906107e6565b60405180910390f35b610089600480360381019061008491906105c9565b610204565b6040516100969190610808565b60405180910390f35b6100a76104a0565b6040516100b49190610808565b60405180910390f35b6100d760048036038101906100d2919061058d565b6104a6565b005b60606002805480602002602001604051908101604052809291908181526020016000905b828210156101fb57838290600052602060002090600a020160405180610160016040529081600082015481526020016001820160009054906101000a900460ff161515151581526020016001820160019054906101000a900473ffffffffffffffffffffffffffffffffffffffff1673ffffffffffffffffffffffffffffffffffffffff1673ffffffffffffffffffffffffffffffffffffffff16815260200160028201548152602001600382015481526020016004820154815260200160058201548152602001600682015481526020016007820154815260200160088201548152602001600982015481525050815260200190600101906100fd565b50505050905090565b600061020e6104f1565b600080815461021c906108b6565b91905081905581600001818152505087816040019073ffffffffffffffffffffffffffffffffffffffff16908173ffffffffffffffffffffffffffffffffffffffff1681525050868160a001818152505085816060018181525050838160c00181815250506001816020019015159081151581525050600081610140018181525050848160e001818152505082816101000181815250508060016000836000015181526020019081526020016000206000820151816000015560208201518160010160006101000a81548160ff02191690831515021790555060408201518160010160016101000a81548173ffffffffffffffffffffffffffffffffffffffff021916908373ffffffffffffffffffffffffffffffffffffffff160217905550606082015181600201556080820151816003015560a0820151816004015560c0820151816005015560e0820151816006015561010082015181600701556101208201518160080155610140820151816009015590505060028190806001815401808255809150506001900390600052602060002090600a02016000909190919091506000820151816000015560208201518160010160006101000a81548160ff02191690831515021790555060408201518160010160016101000a81548173ffffffffffffffffffffffffffffffffffffffff021916908373ffffffffffffffffffffffffffffffffffffffff160217905550606082015181600201556080820151816003015560a0820151816004015560c0820151816005015560e08201518160060155610100820151816007015561012082015181600801556101408201518160090155505061048e88866104a6565b80600001519150509695505050505050565b60005481565b8173ffffffffffffffffffffffffffffffffffffffff166108fc829081150290604051600060405180830381858888f193505050501580156104ec573d6000803e3d6000fd5b505050565b60405180610160016040528060008152602001600015158152602001600073ffffffffffffffffffffffffffffffffffffffff16815260200160008152602001600081526020016000815260200160008152602001600081526020016000815260200160008152602001600081525090565b6000813590506105728161092e565b92915050565b60008135905061058781610945565b92915050565b600080604083850312156105a057600080fd5b60006105ae85828601610563565b92505060206105bf85828601610578565b9150509250929050565b60008060008060008060c087890312156105e257600080fd5b60006105f089828a01610563565b965050602061060189828a01610578565b955050604061061289828a01610578565b945050606061062389828a01610578565b935050608061063489828a01610578565b92505060a061064589828a01610578565b9150509295509295509295565b600061065e83836106e7565b6101608301905092915050565b6106748161085c565b82525050565b600061068582610833565b61068f818561084b565b935061069a83610823565b8060005b838110156106cb5781516106b28882610652565b97506106bd8361083e565b92505060018101905061069e565b5085935050505092915050565b6106e181610880565b82525050565b610160820160008201516106fe60008501826107c8565b50602082015161071160208501826106d8565b506040820151610724604085018261066b565b50606082015161073760608501826107c8565b50608082015161074a60808501826107c8565b5060a082015161075d60a08501826107c8565b5060c082015161077060c08501826107c8565b5060e082015161078360e08501826107c8565b506101008201516107986101008501826107c8565b506101208201516107ad6101208501826107c8565b506101408201516107c26101408501826107c8565b50505050565b6107d1816108ac565b82525050565b6107e0816108ac565b82525050565b60006020820190508181036000830152610800818461067a565b905092915050565b600060208201905061081d60008301846107d7565b92915050565b6000819050602082019050919050565b600081519050919050565b6000602082019050919050565b600082825260208201905092915050565b60006108678261088c565b9050919050565b60006108798261088c565b9050919050565b60008115159050919050565b600073ffffffffffffffffffffffffffffffffffffffff82169050919050565b6000819050919050565b60006108c1826108ac565b91507fffffffffffffffffffffffffffffffffffffffffffffffffffffffffffffffff8214156108f4576108f36108ff565b5b600182019050919050565b7f4e487b7100000000000000000000000000000000000000000000000000000000600052601160045260246000fd5b6109378161086e565b811461094257600080fd5b50565b61094e816108ac565b811461095957600080fd5b5056fea26469706673582212209e11fc8d5b36483b8fbc22369b6a540c7d812807c37a3ebf9aebc5d582f4efad64736f6c63430008010033",
  "immutableReferences": {},
  "source": "// SPDX-License-Identifier: GPL-3.0\npragma solidity ^0.8.1;\n\ncontract GrowrLoan {\n    uint256 public id = 100;\n    mapping(uint256 => Loan) loans;\n    struct Loan {\n        uint256 loanId;\n        bool issued;\n        address rbtcAddress;\n        uint256 paymentPeriod;\n        uint256 paymentDueDate;\n        uint256 minPayment;\n        uint256 interestRate;\n        uint256 principal;\n        uint256 totalPaymentsValue;\n        uint256 awaitingCollection;\n        uint256 paymentComplete;\n    }\n\n    Loan[] listLoans;\n\n    function createNewLoan(\n        address payable _rBTC,\n        uint256 _minPayment,\n        uint256 _paymentPeriod,\n        uint256 _principal,\n        uint256 _interestRate,\n        uint256 _totalPaymentsValue\n    ) public returns (uint256) {\n        Loan memory loan;\n        loan.loanId = ++id;\n        loan.rbtcAddress = _rBTC;\n        loan.minPayment = _minPayment;\n        loan.paymentPeriod = _paymentPeriod;\n        loan.interestRate = _interestRate;\n        loan.issued = true;\n        loan.paymentComplete = 0;\n        loan.principal = _principal;\n        loan.totalPaymentsValue = _totalPaymentsValue;\n        loans[loan.loanId] = loan;\n        listLoans.push(loan);\n        disburseLoan(_rBTC,_principal);\n        return loan.loanId;\n    }\n\n    function getLoanLists() public view returns (Loan[] memory) {\n        return listLoans;\n    }\n\n    function disburseLoan(address payable _borrower,uint256 _amount) public {\n        _borrower.transfer(_amount);\n    }\n}\n",
  "sourcePath": "/Users/shankarraomata/Documents/bankathon/growr-on-chain-smart-contracts/contracts/GrowrLoan.sol",
  "compiler": {
    "name": "solc",
    "version": "0.8.1+commit.df193b15.Emscripten.clang"
  },
  "schemaVersion": "3.4.3",
  "updatedAt": "2021-12-07T22:28:37.453Z",
  "networkType": "ethereum",
  "devdoc": {
    "kind": "dev",
    "methods": {},
    "version": 1
  },
  "userdoc": {
    "kind": "user",
    "methods": {},
    "version": 1
  }
}