{
  "contractName": "LendingPool",
  "abi": [
    {
      "inputs": [],
      "name": "id",
      "outputs": [
        {
          "internalType": "uint256",
          "name": "",
          "type": "uint256"
        }
      ],
      "stateMutability": "view",
      "type": "function",
      "constant": true
    },
    {
      "inputs": [],
      "name": "totalPools",
      "outputs": [
        {
          "internalType": "uint256",
          "name": "",
          "type": "uint256"
        }
      ],
      "stateMutability": "view",
      "type": "function",
      "constant": true
    },
    {
      "inputs": [
        {
          "internalType": "uint256",
          "name": "minScore",
          "type": "uint256"
        },
        {
          "internalType": "uint256",
          "name": "maxScore",
          "type": "uint256"
        },
        {
          "internalType": "uint256",
          "name": "apr",
          "type": "uint256"
        },
        {
          "internalType": "uint256",
          "name": "maxAmount",
          "type": "uint256"
        },
        {
          "internalType": "enum LendingPool.RiskType",
          "name": "riskType",
          "type": "uint8"
        }
      ],
      "name": "createPool",
      "outputs": [],
      "stateMutability": "nonpayable",
      "type": "function"
    },
    {
      "inputs": [],
      "name": "getPools",
      "outputs": [
        {
          "components": [
            {
              "internalType": "uint256",
              "name": "poolId",
              "type": "uint256"
            },
            {
              "internalType": "uint256",
              "name": "minScore",
              "type": "uint256"
            },
            {
              "internalType": "uint256",
              "name": "maxScore",
              "type": "uint256"
            },
            {
              "internalType": "uint256",
              "name": "apr",
              "type": "uint256"
            },
            {
              "internalType": "uint256",
              "name": "maxAmount",
              "type": "uint256"
            },
            {
              "internalType": "enum LendingPool.RiskType",
              "name": "riskType",
              "type": "uint8"
            }
          ],
          "internalType": "struct LendingPool.Pool[]",
          "name": "",
          "type": "tuple[]"
        }
      ],
      "stateMutability": "view",
      "type": "function",
      "constant": true
    }
  ],
  "bytecode": "0x60806040526064600055600060015534801561001a57600080fd5b506108a98061002a6000396000f3fe608060405234801561001057600080fd5b506004361061004c5760003560e01c8063673a2a1f14610051578063996dc83c1461006f578063ab3c7e521461008b578063af640d0f146100a9575b600080fd5b6100596100c7565b60405161006691906106ec565b60405180910390f35b61008960048036038101906100849190610557565b6101df565b005b6100936104b3565b6040516100a0919061070e565b60405180910390f35b6100b16104b9565b6040516100be919061070e565b60405180910390f35b60606003805480602002602001604051908101604052809291908181526020016000905b828210156101d657838290600052602060002090600602016040518060c001604052908160008201548152602001600182015481526020016002820154815260200160038201548152602001600482015481526020016005820160009054906101000a900460ff16600281111561018b577f4e487b7100000000000000000000000000000000000000000000000000000000600052602160045260246000fd5b60028111156101c3577f4e487b7100000000000000000000000000000000000000000000000000000000600052602160045260246000fd5b81525050815260200190600101906100eb565b50505050905090565b6101e76104bf565b60008081546101f590610791565b919050819055816000018181525050858160200181815250508481604001818152505082816080018181525050818160a001906002811115610260577f4e487b7100000000000000000000000000000000000000000000000000000000600052602160045260246000fd5b9081600281111561029a577f4e487b7100000000000000000000000000000000000000000000000000000000600052602160045260246000fd5b8152505083816060018181525050600260008360028111156102e5577f4e487b7100000000000000000000000000000000000000000000000000000000600052602160045260246000fd5b600281111561031d577f4e487b7100000000000000000000000000000000000000000000000000000000600052602160045260246000fd5b8152602001908152602001600020819080600181540180825580915050600190039060005260206000209060060201600090919091909150600082015181600001556020820151816001015560408201518160020155606082015181600301556080820151816004015560a08201518160050160006101000a81548160ff021916908360028111156103d8577f4e487b7100000000000000000000000000000000000000000000000000000000600052602160045260246000fd5b021790555050506003819080600181540180825580915050600190039060005260206000209060060201600090919091909150600082015181600001556020820151816001015560408201518160020155606082015181600301556080820151816004015560a08201518160050160006101000a81548160ff0219169083600281111561048e577f4e487b7100000000000000000000000000000000000000000000000000000000600052602160045260246000fd5b021790555050506001600081546104a490610791565b91905081905550505050505050565b60015481565b60005481565b6040518060c00160405280600081526020016000815260200160008152602001600081526020016000815260200160006002811115610527577f4e487b7100000000000000000000000000000000000000000000000000000000600052602160045260246000fd5b81525090565b60008135905061053c8161084c565b92915050565b6000813590506105518161085c565b92915050565b600080600080600060a0868803121561056f57600080fd5b600061057d88828901610542565b955050602061058e88828901610542565b945050604061059f88828901610542565b93505060606105b088828901610542565b92505060806105c18882890161052d565b9150509295509295909350565b60006105da8383610653565b60c08301905092915050565b60006105f182610739565b6105fb8185610751565b935061060683610729565b8060005b8381101561063757815161061e88826105ce565b975061062983610744565b92505060018101905061060a565b5085935050505092915050565b61064d8161077f565b82525050565b60c08201600082015161066960008501826106ce565b50602082015161067c60208501826106ce565b50604082015161068f60408501826106ce565b5060608201516106a260608501826106ce565b5060808201516106b560808501826106ce565b5060a08201516106c860a0850182610644565b50505050565b6106d781610775565b82525050565b6106e681610775565b82525050565b6000602082019050818103600083015261070681846105e6565b905092915050565b600060208201905061072360008301846106dd565b92915050565b6000819050602082019050919050565b600081519050919050565b6000602082019050919050565b600082825260208201905092915050565b600081905061077082610838565b919050565b6000819050919050565b600061078a82610762565b9050919050565b600061079c82610775565b91507fffffffffffffffffffffffffffffffffffffffffffffffffffffffffffffffff8214156107cf576107ce6107da565b5b600182019050919050565b7f4e487b7100000000000000000000000000000000000000000000000000000000600052601160045260246000fd5b7f4e487b7100000000000000000000000000000000000000000000000000000000600052602160045260246000fd5b6003811061084957610848610809565b5b50565b6003811061085957600080fd5b50565b61086581610775565b811461087057600080fd5b5056fea26469706673582212200f013cf61eaef9a6b85f77d31ebdcdbb6cf4e3da6383948fe53048186e801e0364736f6c63430008010033",
  "immutableReferences": {},
  "source": "// SPDX-License-Identifier: GPL-3.0\n\npragma solidity ^0.8.1;\n\n/** \n * @title Ballot\n * @dev Implements voting process along with vote delegation\n */\ncontract LendingPool{\n\n    uint256 public id = 100;\n    uint public totalPools = 0;\n\n    enum RiskType {LOW,MEDIUM,HIGH}\n   \n    struct Pool {\n        uint poolId;\n        uint  minScore; // weight is accumulated by delegation\n        uint  maxScore; \n        uint apr;  // if true, that person already voted\n        uint maxAmount; // person delegated to\n        RiskType riskType;\n    }\n\n    mapping(RiskType => Pool[]) pools;\n    Pool[] poolFinal;\n\n    function createPool(uint minScore, uint maxScore, uint apr, uint maxAmount, RiskType riskType) public\n    {\n        Pool memory pool;\n        pool.poolId = ++id;\n        pool.minScore = minScore;\n        pool.maxScore = maxScore;\n        pool.maxAmount = maxAmount;\n        pool.riskType = riskType;\n        pool.apr = apr;   \n        pools[riskType].push(pool);  \n        poolFinal.push(pool); \n        ++totalPools;  \n    }\n\n       function getPools() public view returns (Pool[] memory) {\n        return poolFinal;\n    }\n    \n   \n}\n",
  "sourcePath": "/Users/shankarraomata/Documents/bankathon/growr-on-chain-smart-contracts/contracts/LendingPool.sol",
  "compiler": {
    "name": "solc",
    "version": "0.8.1+commit.df193b15.Emscripten.clang"
  },
  "schemaVersion": "3.4.3",
  "updatedAt": "2021-12-06T21:49:00.930Z",
  "networkType": "ethereum",
  "devdoc": {
    "details": "Implements voting process along with vote delegation",
    "kind": "dev",
    "methods": {},
    "title": "Ballot",
    "version": 1
  },
  "userdoc": {
    "kind": "user",
    "methods": {},
    "version": 1
  }
}