{
  "contractName": "LendingPool",
  "abi": [
    {
      "inputs": [],
      "name": "id",
      "outputs": [
        {
          "internalType": "uint256",
          "name": "",
          "type": "uint256"
        }
      ],
      "stateMutability": "view",
      "type": "function",
      "constant": true
    },
    {
      "inputs": [],
      "name": "totalPools",
      "outputs": [
        {
          "internalType": "uint256",
          "name": "",
          "type": "uint256"
        }
      ],
      "stateMutability": "view",
      "type": "function",
      "constant": true
    },
    {
      "inputs": [
        {
          "internalType": "uint256",
          "name": "minScore",
          "type": "uint256"
        },
        {
          "internalType": "uint256",
          "name": "maxScore",
          "type": "uint256"
        },
        {
          "internalType": "uint256",
          "name": "apr",
          "type": "uint256"
        },
        {
          "internalType": "uint256",
          "name": "maxAmount",
          "type": "uint256"
        },
        {
          "internalType": "enum LendingPool.RiskType",
          "name": "riskType",
          "type": "uint8"
        }
      ],
      "name": "createPool",
      "outputs": [],
      "stateMutability": "nonpayable",
      "type": "function"
    },
    {
      "inputs": [],
      "name": "getPools",
      "outputs": [
        {
          "components": [
            {
              "internalType": "uint256",
              "name": "poolId",
              "type": "uint256"
            },
            {
              "internalType": "uint256",
              "name": "minScore",
              "type": "uint256"
            },
            {
              "internalType": "uint256",
              "name": "maxScore",
              "type": "uint256"
            },
            {
              "internalType": "uint256",
              "name": "apr",
              "type": "uint256"
            },
            {
              "internalType": "uint256",
              "name": "maxAmount",
              "type": "uint256"
            },
            {
              "internalType": "enum LendingPool.RiskType",
              "name": "riskType",
              "type": "uint8"
            }
          ],
          "internalType": "struct LendingPool.Pool[]",
          "name": "",
          "type": "tuple[]"
        }
      ],
      "stateMutability": "view",
      "type": "function",
      "constant": true
    },
    {
      "inputs": [
        {
          "internalType": "enum LendingPool.RiskType",
          "name": "riskType",
          "type": "uint8"
        }
      ],
      "name": "getRiskPools",
      "outputs": [
        {
          "components": [
            {
              "internalType": "uint256",
              "name": "poolId",
              "type": "uint256"
            },
            {
              "internalType": "uint256",
              "name": "minScore",
              "type": "uint256"
            },
            {
              "internalType": "uint256",
              "name": "maxScore",
              "type": "uint256"
            },
            {
              "internalType": "uint256",
              "name": "apr",
              "type": "uint256"
            },
            {
              "internalType": "uint256",
              "name": "maxAmount",
              "type": "uint256"
            },
            {
              "internalType": "enum LendingPool.RiskType",
              "name": "riskType",
              "type": "uint8"
            }
          ],
          "internalType": "struct LendingPool.Pool[]",
          "name": "",
          "type": "tuple[]"
        }
      ],
      "stateMutability": "view",
      "type": "function",
      "constant": true
    }
  ],
  "bytecode": "0x60806040526064600055600060015534801561001a57600080fd5b50610aa88061002a6000396000f3fe608060405234801561001057600080fd5b50600436106100575760003560e01c8063673a2a1f1461005c5780636d83c3ef1461007a578063996dc83c146100aa578063ab3c7e52146100c6578063af640d0f146100e4575b600080fd5b610064610102565b60405161007191906108eb565b60405180910390f35b610094600480360381019061008f919061072d565b61021a565b6040516100a191906108eb565b60405180910390f35b6100c460048036038101906100bf9190610756565b6103b5565b005b6100ce610689565b6040516100db919061090d565b60405180910390f35b6100ec61068f565b6040516100f9919061090d565b60405180910390f35b60606003805480602002602001604051908101604052809291908181526020016000905b8282101561021157838290600052602060002090600602016040518060c001604052908160008201548152602001600182015481526020016002820154815260200160038201548152602001600482015481526020016005820160009054906101000a900460ff1660028111156101c6577f4e487b7100000000000000000000000000000000000000000000000000000000600052602160045260246000fd5b60028111156101fe577f4e487b7100000000000000000000000000000000000000000000000000000000600052602160045260246000fd5b8152505081526020019060010190610126565b50505050905090565b606060026000836002811115610259577f4e487b7100000000000000000000000000000000000000000000000000000000600052602160045260246000fd5b6002811115610291577f4e487b7100000000000000000000000000000000000000000000000000000000600052602160045260246000fd5b8152602001908152602001600020805480602002602001604051908101604052809291908181526020016000905b828210156103aa57838290600052602060002090600602016040518060c001604052908160008201548152602001600182015481526020016002820154815260200160038201548152602001600482015481526020016005820160009054906101000a900460ff16600281111561035f577f4e487b7100000000000000000000000000000000000000000000000000000000600052602160045260246000fd5b6002811115610397577f4e487b7100000000000000000000000000000000000000000000000000000000600052602160045260246000fd5b81525050815260200190600101906102bf565b505050509050919050565b6103bd610695565b60008081546103cb90610990565b919050819055816000018181525050858160200181815250508481604001818152505082816080018181525050818160a001906002811115610436577f4e487b7100000000000000000000000000000000000000000000000000000000600052602160045260246000fd5b90816002811115610470577f4e487b7100000000000000000000000000000000000000000000000000000000600052602160045260246000fd5b8152505083816060018181525050600260008360028111156104bb577f4e487b7100000000000000000000000000000000000000000000000000000000600052602160045260246000fd5b60028111156104f3577f4e487b7100000000000000000000000000000000000000000000000000000000600052602160045260246000fd5b8152602001908152602001600020819080600181540180825580915050600190039060005260206000209060060201600090919091909150600082015181600001556020820151816001015560408201518160020155606082015181600301556080820151816004015560a08201518160050160006101000a81548160ff021916908360028111156105ae577f4e487b7100000000000000000000000000000000000000000000000000000000600052602160045260246000fd5b021790555050506003819080600181540180825580915050600190039060005260206000209060060201600090919091909150600082015181600001556020820151816001015560408201518160020155606082015181600301556080820151816004015560a08201518160050160006101000a81548160ff02191690836002811115610664577f4e487b7100000000000000000000000000000000000000000000000000000000600052602160045260246000fd5b0217905550505060016000815461067a90610990565b91905081905550505050505050565b60015481565b60005481565b6040518060c001604052806000815260200160008152602001600081526020016000815260200160008152602001600060028111156106fd577f4e487b7100000000000000000000000000000000000000000000000000000000600052602160045260246000fd5b81525090565b60008135905061071281610a4b565b92915050565b60008135905061072781610a5b565b92915050565b60006020828403121561073f57600080fd5b600061074d84828501610703565b91505092915050565b600080600080600060a0868803121561076e57600080fd5b600061077c88828901610718565b955050602061078d88828901610718565b945050604061079e88828901610718565b93505060606107af88828901610718565b92505060806107c088828901610703565b9150509295509295909350565b60006107d98383610852565b60c08301905092915050565b60006107f082610938565b6107fa8185610950565b935061080583610928565b8060005b8381101561083657815161081d88826107cd565b975061082883610943565b925050600181019050610809565b5085935050505092915050565b61084c8161097e565b82525050565b60c08201600082015161086860008501826108cd565b50602082015161087b60208501826108cd565b50604082015161088e60408501826108cd565b5060608201516108a160608501826108cd565b5060808201516108b460808501826108cd565b5060a08201516108c760a0850182610843565b50505050565b6108d681610974565b82525050565b6108e581610974565b82525050565b6000602082019050818103600083015261090581846107e5565b905092915050565b600060208201905061092260008301846108dc565b92915050565b6000819050602082019050919050565b600081519050919050565b6000602082019050919050565b600082825260208201905092915050565b600081905061096f82610a37565b919050565b6000819050919050565b600061098982610961565b9050919050565b600061099b82610974565b91507fffffffffffffffffffffffffffffffffffffffffffffffffffffffffffffffff8214156109ce576109cd6109d9565b5b600182019050919050565b7f4e487b7100000000000000000000000000000000000000000000000000000000600052601160045260246000fd5b7f4e487b7100000000000000000000000000000000000000000000000000000000600052602160045260246000fd5b60038110610a4857610a47610a08565b5b50565b60038110610a5857600080fd5b50565b610a6481610974565b8114610a6f57600080fd5b5056fea2646970667358221220febba0b0bed4239f24927d3992e6abe68adb754a9b70227da4005263460f4e6764736f6c63430008010033",
  "immutableReferences": {},
  "source": "// SPDX-License-Identifier: GPL-3.0\n\npragma solidity ^0.8.1;\n\ncontract LendingPool{\n\n    uint256 public id = 100;\n    uint public totalPools = 0;\n\n    enum RiskType {LOW,MEDIUM,HIGH}\n   \n    struct Pool {\n        uint poolId;\n        uint  minScore; \n        uint  maxScore; \n        uint apr;  \n        uint maxAmount; \n        RiskType riskType;\n    }\n\n    mapping(RiskType => Pool[]) pools;\n    Pool[] poolFinal;\n\n    function createPool(uint minScore, uint maxScore, uint apr, uint maxAmount, RiskType riskType) public\n    {\n        Pool memory pool;\n        pool.poolId = ++id;\n        pool.minScore = minScore;\n        pool.maxScore = maxScore;\n        pool.maxAmount = maxAmount;\n        pool.riskType = riskType;\n        pool.apr = apr;   \n        pools[riskType].push(pool);  \n        poolFinal.push(pool); \n        ++totalPools;  \n    }\n\n       function getPools() public view returns (Pool[] memory) {\n        return poolFinal;\n    }\n\n    function getRiskPools(RiskType riskType) public view returns (Pool[] memory) {\n        return pools[riskType];\n    }\n\n\n    \n   \n}\n",
  "sourcePath": "/Users/shankarraomata/Documents/bankathon/growr-on-chain-smart-contracts/contracts/LendingPool.sol",
  "compiler": {
    "name": "solc",
    "version": "0.8.1+commit.df193b15.Emscripten.clang"
  },
  "schemaVersion": "3.4.3",
  "updatedAt": "2021-12-07T18:48:09.770Z",
  "networkType": "ethereum",
  "devdoc": {
    "kind": "dev",
    "methods": {},
    "version": 1
  },
  "userdoc": {
    "kind": "user",
    "methods": {},
    "version": 1
  }
}